:100000000C9446000C9465000C9465000C946500FB
:100010000C9465000C9465000C9465000C946500CC
:100020000C9465000C9465000C9465000C946500BC
:100030000C9465000C94B5000C9465000C9465005C
:100040000C9465000C9465000C9465000C9465009C
:100050000C9465000C9465000C9465000C9465008C
:100060000C9465000C9465000C9465000C9465007C
:100070000C9465000C9465000C9465000C9465006C
:100080000C9465000C9465000C94650011241FBE4F
:10009000CFEFD0E4DEBFCDBF11E0A0E0B1E0E6EAF3
:1000A000FBE000E00BBF02C007900D92A233B10746
:1000B000D9F721E0A2E3B1E001C01D92A034B2075C
:1000C000E1F70E94F6030C94D1050C940000CF9345
:1000D000DF93CDB7DEB781E890E02BE0FC01208311
:1000E00088E890E02DE730E0FC01318320838FE643
:1000F00090E022E0FC01208384E890E0FC01118282
:1001000010828091000190910101A0910201B091B3
:1001100003018093330190933401A0933501B09390
:1001200036018FE590E02FE530E0F901208120686D
:10013000FC0120830000DF91CF910895CF93DF93DE
:10014000CDB7DEB781E890E0FC0110820000DF91BE
:10015000CF910895CF93DF93CDB7DEB781E0809341
:1001600032010000DF91CF9108951F920F9200900D
:100170005F000F92112400905B000F922F933F932A
:100180004F935F936F937F938F939F93AF93BF939F
:10019000EF93FF93CF93DF93CDB7DEB78091330119
:1001A00090913401A0913501B09136010197A109D8
:1001B000B1098093330190933401A0933501B0933A
:1001C00036018091330190913401A0913501B091B5
:1001D0003601892B8A2B8B2B91F40E94AA008091E7
:1001E000000190910101A0910201B091030180935F
:1001F000330190933401A0933501B0933601000090
:10020000DF91CF91FF91EF91BF91AF919F918F912E
:100210007F916F915F914F913F912F910F9000923D
:100220005B000F9000925F000F901F901895CF9386
:10023000DF9300D000D0CDB7DEB769837A838B839C
:100240009C8389819A81AB81BC81809300019093CA
:100250000101A0930201B0930301809100019091EC
:100260000101A0910201B0910301809333019093A9
:100270003401A0933501B093360100000F900F9028
:100280000F900F90DF91CF910895CF93DF9300D01F
:100290001F92CDB7DEB789837B836A8389818A30D9
:1002A00031F48A819B81BC018DE00E94450180EC84
:1002B00090E0FC018081882F90E080729927892B43
:1002C000B1F386EC90E02981FC01208380E090E08E
:1002D0000F900F900F90DF91CF9108950F931F9380
:1002E000CF93DF9300D000D0CDB7DEB769837A8398
:1002F0008B839C838091370190913801A0913901C3
:10030000B0913A019C01AD0169817A818B819C8118
:100310000E943D04882309F477C020E030E0A90161
:1003200069817A818B819C810E943D04882351F4EC
:1003300081E990E021E930E0F90120812870FC0199
:10034000208309C081E990E021E930E0F9012081B2
:100350002360FC01208328E539E344E75FE36981FA
:100360007A818B819C810E943D04882344F488E932
:1003700090E02FEF3FEFFC013183208334C020E079
:1003800034E244EF56E469817A818B819C810E943A
:100390005F05181634F488E990E0FC0111821082A0
:1003A00022C008E910E020E030E040E053E4698139
:1003B0007A818B819C810E946405DC01CB019C01C8
:1003C000AD0160E074E284EF9AE40E944204DC0133
:1003D000CB01BC01CD010E94B404DC01CB0101972B
:1003E000F8019183808384E990E0FC0111821082FE
:1003F00089819A81AB81BC818093370190933801C8
:10040000A0933901B0933A0100000F900F900F9024
:100410000F90DF91CF911F910F910895CF93DF93AC
:10042000CDB7DEB780E990E020E4FC01208381E9CC
:1004300090E02BE0FC01208360E070E0CB010E94A3
:100440006E010000DF91CF910895CF93DF93CDB778
:10045000DEB780E990E0FC01108281E990E0FC01C8
:1004600010820000DF91CF910895CF93DF93CDB735
:10047000DEB780E290E0FC018081809587708093F8
:100480003F0180913C0190913D018130910509F43B
:1004900087C08130910540F08230910509F4E3C0B6
:1004A000039709F43EC19EC180913F01843019F544
:1004B00080913E018823F9F081E090E090933D0126
:1004C00080933C0180913E01815080933E01809158
:1004D0003E01882F90E0880F991F880F991F8E5E2C
:1004E0009E4FFC0180819181A281B381BC01CD012D
:1004F0000E946E0172C180913F01823041F582E01D
:1005000090E090933D0180933C0180913B018823D2
:10051000C9F40E940E0280913E01882F90E0880F5E
:10052000991F880F991F8E5E9E4FFC0180819181DB
:10053000A281B381BC01CD010E946E0181E0809354
:100540003B014BC10E94250210923B0146C18091A4
:100550003F01813009F041C180913E01873008F0B0
:100560003CC183E090E090933D0180933C018091F9
:100570003E018F5F80933E0180913E01882F90E085
:10058000880F991F880F991F8E5E9E4FFC018081F6
:100590009181A281B381BC01CD010E946E011DC178
:1005A00080913F01882329F410923D0110923C0173
:1005B00016C180913F01843009F411C180913F013F
:1005C000823041F582E090E090933D0180933C01C0
:1005D00080913B018823C9F40E940E0280913E0164
:1005E000882F90E0880F991F880F991F8E5E9E4F6D
:1005F000FC0180819181A281B381BC01CD010E9467
:100600006E0181E080933B01EAC00E9425021092B6
:100610003B01E5C080913F01813009F0E0C080914D
:100620003E01873008F0DBC083E090E090933D010D
:1006300080933C0180913E018F5F80933E018091C9
:100640003E01882F90E0880F991F880F991F8E5EBA
:100650009E4FFC0180819181A281B381BC01CD01BB
:100660000E946E01BCC080913F01882329F4109242
:100670003D0110923C01B5C080913F01843019F5D5
:1006800080913E018823F9F081E090E090933D0154
:1006900080933C0180913E01815080933E01809186
:1006A0003E01882F90E0880F991F880F991F8E5E5A
:1006B0009E4FFC0180819181A281B381BC01CD015B
:1006C0000E946E018EC080913F01823009F489C082
:1006D00080913F01813009F084C080913E018730D4
:1006E00008F07FC083E090E090933D0180933C014F
:1006F00080913E018F5F80933E0180913E01882F63
:1007000090E0880F991F880F991F8E5E9E4FFC0105
:1007100080819181A281B381BC01CD010E946E01D3
:1007200060C080913F01882329F410923D0110920E
:100730003C0158C080913F01843019F580913E0101
:100740008823F9F081E090E090933D0180933C0193
:1007500080913E01815080933E0180913E01882F1F
:1007600090E0880F991F880F991F8E5E9E4FFC01A5
:1007700080819181A281B381BC01CD010E946E0173
:1007800031C080913F01823069F582E090E0909322
:100790003D0180933C0180913B018823C9F40E9474
:1007A0000E0280913E01882F90E0880F991F880FDC
:1007B000991F8E5E9E4FFC0180819181A281B38141
:1007C000BC01CD010E946E0181E080933B010AC013
:1007D0000E94250210923B0105C0000003C00000EA
:1007E00001C000000000DF91CF910895CF93DF9307
:1007F000CDB7DEB781E290E0FC01108282E290E0AA
:100800002FEFFC01208384E290E02FEFFC01208396
:1008100085E290E0FC01108287E290E02FEFFC017E
:10082000208388E290E0FC0110828AE290E02FEFC2
:10083000FC0120838BE290E0FC01108264E670E012
:1008400080E090E00E9417010E94670010923D0135
:1008500010923C0110923B0110923E0164EA70ED4F
:1008600082E893E40E946E01809132018823E1F3D3
:100870000E94350210923201F7CF0E94EA0408F478
:1008800081E008950E9456040C9425050E941E05DF
:1008900058F00E94170540F029F45F3F29F00C94AE
:1008A0000E0551110C9459050C9414050E9436053F
:1008B00068F39923B1F3552391F3951B550BBB278F
:1008C000AA2762177307840738F09F5F5F4F220FD4
:1008D000331F441FAA1FA9F335D00E2E3AF0E0E8CB
:1008E00032D091505040E695001CCAF72BD0FE2F15
:1008F00029D0660F771F881FBB1F261737074807A9
:10090000AB07B0E809F0BB0B802DBF01FF27935860
:100910005F4F3AF09E3F510578F00C940E050C9411
:1009200059055F3FE4F3983ED4F386957795679534
:10093000B795F7959F5FC9F7880F911D9695879595
:1009400097F90895E1E0660F771F881FBB1F6217B4
:1009500073078407BA0720F0621B730B840BBA0B72
:10096000EE1F88F7E09508950E94BB046894B111CA
:100970000C94590508950E943E0588F09F5798F001
:10098000B92F9927B751B0F0E1F0660F771F881F94
:10099000991F1AF0BA95C9F714C0B13091F00E94AE
:1009A0005805B1E008950C945805672F782F8827D3
:1009B000B85F39F0B93FCCF3869577956795B395D5
:1009C000D9F73EF490958095709561957F4F8F4F44
:1009D0009F4F0895990F0008550FAA0BE0E8FEEF0E
:1009E00016161706E807F907C0F012161306E407F3
:1009F000F50798F0621B730B840B950B39F40A26EC
:100A000061F0232B242B252B21F408950A2609F4C9
:100A1000A140A6958FEF811D811D089597F99F67CD
:100A200080E870E060E008959FEF80EC0895002476
:100A30000A941616170618060906089500240A9443
:100A400012161306140605060895092E0394000CC9
:100A500011F4882352F0BB0F40F4BF2B11F460FF58
:100A600004C06F5F7F4F8F4F9F4F089557FD905881
:100A7000440F551F59F05F3F71F04795880F97FB62
:100A8000991F61F09F3F79F087950895121613061C
:100A90001406551FF2CF4695F1DF08C0161617064B
:100AA0001806991FF1CF8695710561050894089580
:100AB000E894BB2766277727CB0197F908950E9412
:100AC000EA0408F48FEF08950E9477050C94250539
:100AD0000E94170538F00E941E0520F0952311F0A2
:100AE0000C940E050C94140511240C9459050E94C5
:100AF000360570F3959FC1F3950F50E0551F629F27
:100B0000F001729FBB27F00DB11D639FAA27F00D66
:100B1000B11DAA1F649F6627B00DA11D661F829F8D
:100B20002227B00DA11D621F739FB00DA11D621F72
:100B3000839FA00D611D221F749F3327A00D611D8F
:100B4000231F849F600D211D822F762F6A2F112471
:100B50009F5750409AF0F1F088234AF0EE0FFF1FA4
:100B6000BB1F661F771F881F91505040A9F79E3FFB
:100B7000510580F00C940E050C9459055F3FE4F389
:100B8000983ED4F3869577956795B795F795E79551
:100B90009F5FC1F7FE2B880F911D9695879597F95A
:060BA0000895F894FFCF58
:100BA60001000000000000020000000045010000F6
:100BB6000000A4D082437BD49243A4D0A443719D69
:100BC600AE430000C4430000DC43A4F0F64300D06B
:020BD6000244D7
:00000001FF
